:020000040000FA
:1000000080310B28003008007E148031853139257D
:1000100080317E10090080310D281A30840089302B
:10002000850020308600013087002A309731BF27B5
:100030008031ED01EE01EF012100C501C601C701CC
:10004000C801C901CA012200CA01CB01CC01CD01FE
:10005000CE01CF01D001D101D2017E1020008B3121
:100060007B2B2000CA01220045082000C000400868
:10007000DD005D0A8600870106300106031D412868
:10008000422805295D088600870180300106031D8E
:100090004A284B2805295D08023E86008701403F1B
:1000A000C000413FC1004108C2004208DA005D08BB
:1000B00086008701423FDB005A03031D6028612848
:1000C0007C28D430B0009030B100D430840090301F
:1000D00085000008C000C1014008B2004108B3001B
:1000E0005D08063E86008701403FB400413FB500F1
:1000F0008C314E2480314C2B02305A06031D81284E
:100100008228B3285B080319862887288B28973113
:10011000D42780314C2B5B35483E86000130870068
:10012000403FCD00413FCE004E08B1004D08B00029
:100130004E08C1004D08C00002304007840041084D
:100140000318410A8500003FB200013FB3005D087B
:10015000063E86008701403FB400413FB5008C3128
:100160004E2480314C2B03305A06031DB828B92881
:10017000DF285830C0004008F0005B088931CF21EB
:10018000803171082000D0007008CF00D01FC9282E
:10019000CA28CB2887285908B1005808B000500851
:1001A000B3004F08B2005D08063E86008701403F5D
:1001B000B400413FB5008C314E2480314C2B4C3083
:1001C000C0004008F0005D088831002080317108CF
:1001D0002000D2007008D100D21FEF28F028F128AB
:1001E00087284C08B0000030B1005208B300510815
:1001F000B2005D08063E86008701403FB400413FE3
:10020000B5008C314E2480314C2B5D0A860087016D
:1002100005300106031D0D290E291C292100C901E5
:10022000C90A20005D0886008701423F2200CF00F6
:100230009731CC2780314C2B5D0A8600870109302D
:100240000106031D242925293B295D088600870115
:10025000423FD30053089731A92780318F311027AF
:1002600080319731CC27803120005308C0004008EE
:100270002100CA004C2B5D0A860087010830010668
:10028000031D432944295829CA30B0000030B10069
:100290000130B2000030B3005D08063E86008701E1
:1002A000403FB400413FB5008C314E2480314C2B8F
:1002B0005D0A860087010108031D5F296029ED2979
:1002C0005D088600870101081F39003A031D69296E
:1002D0006A2986299731B627803171082000C40029
:1002E0007008C3004330B0000030B1000230B200EB
:1002F0000030B3005D08063E86008701403FB40031
:10030000413FB5008C314E2480314C2B5D08860076
:10031000870101081F39023A031D8F299029872878
:100320005D08043E8600870101080F39C0004008BF
:10033000D4000230540203189E299F2987280530D3
:10034000C0004008F00054088831252080313F3E2D
:1003500086000130870001082000C1004108D50057
:100360005D08043E86008701403FC000413FC10058
:10037000C01BBB29BC29C52955080139C000C101D2
:100380004008C8004108C900CD2955080239C000FD
:10039000C1014008C8004108C90048084904031DBC
:1003A000D229D4290130D5290030C0004008C50029
:1003B000C6014530B0000030B1000230B20000305C
:1003C000B3005D08063E86008701403FB400413F10
:1003D000B5008C314E2480314C2B5D0A860087019C
:1003E0000B300106031DF529F6290C2A5D0886004D
:1003F0008701423FF0005D08043E86008701010846
:100400008031022080312000C0004008C700C71F93
:100410000A2A0B2A182987285D0A860087010A30D4
:100420000106031D142A152A3A2A5D08043E860097
:10043000870101089731B42780312000C0004008AF
:10044000D700D71F242A252A262A87285730B0000C
:100450000030B1000130B2000030B3005D08063E4C
:1004600086008701403FB400413FB5008C314E24E7
:1004700080314C2B5D0A8600870101030319412A54
:10048000422A4B2A5D0A8600870103300106031DBC
:100490004A2A4B2A4A2BCB01CB0A5D0886008701EA
:1004A00001081F39023A031D562A572A442B5D08BA
:1004B000023E8600870116000104031D602A612A9E
:1004C000442B5D08043E8600870101080F39C000F7
:1004D0004008DC005D08043E860087010108803981
:1004E000C0004008D60002305C020318782A792A3E
:1004F000442B5D0A8600870103300106031D812A13
:10050000822A912A56080319862A872A8C2A5C088F
:1005100088319D2080312B2B5C088831BC208031B4
:100520002B2B56080319952A962AE12A0530C0007C
:100530004008F0005C088831252080313E3E86006E
:100540000130870001082000C1005C08C2000230B1
:10055000C235FF3E031DA82A4235253E860087018D
:10056000410881005C08C0000230C035FF3E031D19
:10057000B52A4035243E860087018101F730C0004E
:100580000530C1004108F0005C0888312520803129
:100590003F3E860001308700200040088105FD3085
:1005A000C0000530C1004108F0005C0888312520FA
:1005B00080313F3E860001308700200040088105E1
:1005C0002B2B0530C0004008F0005C088831252046
:1005D00080313D3E86000130870001082000C100C7
:1005E0005C08C2000230C235FF3E031DF32A4235CB
:1005F000213E86008701410881008830C0005C08E8
:10060000C1000230C135FF3E031D022B4135203EA3
:1006100086008701400881000530C0004008F000D6
:100620005C088831252080313F3E860001308700FC
:100630000115FE302000C0000530C1004108F00067
:100640005C088831252080313F3E860001308700DC
:1006500020004008810520005D0A860087010330E4
:1006600001060319342B362B0130372B0030C00024
:100670004008F0005D08043E8600870101089731BC
:10068000A82780312000CB014B08031D482B492BA4
:1006900087281829CA01CA0320004A080800200038
:1006A000E500650886008701443FE400650A86008E
:1006B000870106300106031D5E2B5F2BD52B6508D5
:1006C0008600870181300106031D672B682BD52B1F
:1006D0006508023E86008701403FC400413FC500D7
:1006E0004508C6004608DA00FF30E200FF30E300AC
:1006F00021305A06031D7D2B7E2B8C2B6030C400CD
:100700004408F00064088831152083317108200006
:10071000E3007008E2009F2B22305A06031D912B44
:10072000922B9F2B6030C4004408F000640897317E
:10073000F427833171082000E3007008E200E31F12
:10074000A22BA32BA52BFF30382D6508063E860073
:100750008701403FC400413FC50045086302031DB7
:10076000B32B44086202031CB62BB72BC02B6508C1
:10077000063E86008701403FD300413FD400C42B92
:100780006308D4006208D3006108BE006008BD00A1
:100790005408C0005308BF000030C100C200C301AC
:1007A0008831672083310030382D650A8600870143
:1007B0000103031DDC2BDD2B4C2C65088600870113
:1007C000A1300106031DE52BE62B4C2C6508023EEB
:1007D00086008701403FC400413FC5004508C60070
:1007E0004608C900650886008701423FCA004908DB
:1007F000C4004408F0004A08C5004508F1005B3019
:10080000C6004608F2005830C7004708F3005C30C5
:10081000C8004808F400640888315020833171080A
:100820002000DF007008DE00DF1F172C182C192CA9
:10083000A32B6508063E86008701403FC400413F68
:10084000C50045085F02031D272C44085E02031CF7
:100850002A2C2B2C342C6508063E86008701403F4D
:10086000D500413FD600382C5F08D6005E08D50081
:100870005B08BD000130BE005608C0005508BF002F
:100880005908C2005808C1005C08C4004408C300ED
:10089000883167208331D32B650A860087010930B0
:1008A0000106031D542C552C812C650886008701F8
:1008B00021300106031D5D2C5E2C812C6508023E53
:1008C00086008701403FC400413FC5004508C6007F
:1008D0004608CB00650886008701423FCC004B08E4
:1008E000C4004408F0004C08C5004508F100640845
:1008F0009731B22783312000C6004608CD004D084D
:10090000382D650A8600870102300106031D892CF7
:100910008A2CB42C650886008701A1300106031DCE
:10092000922C932CB42C650886008701423FCE00A0
:100930004E08C4004408F00064089731AA278331A8
:100940002000C5004508D7005730BD000030BE006C
:100950000130BF000030C0000030C100C200C30140
:10096000883167208331D32B650A860087010A30DE
:100970000106031DBC2CBD2CE92C650886008701EF
:1009800021300106031DC52CC62CE92C6508023E4A
:1009900086008701403FC400413FC5004508C600AE
:1009A0004608CF00650886008701423FD000500806
:1009B000C4004408F0004F08C5004508F100640871
:1009C0009731AE2783312000C6004608D100510878
:1009D000382D650A8600870103300106031DF12CBE
:1009E000F22C182D650886008701A1300106031D31
:1009F000FA2CFB2C182D64089731AC27833120008A
:100A0000C4004408DD00DD1F062D072D082DA32B93
:100A10005D30BD000030BE000130BF000030C000BE
:100A20000030C100C200C301883167208331D32B5D
:100A3000650A860087010B300106031D202D212D3C
:100A4000A32B65088600870121300106031D292D8F
:100A50002A2DA32B650886008701423FF000640819
:100A60009731B02783312000C4004408D2005208D7
:100A700008003D00101C3D2D3E2D462D9731A62728
:100A800085318B31182385313D001010901E492D82
:100A90004A2D7F2D01302100A3000030A4009830A2
:100AA0002000E9000E30EA00210023082000690739
:100AB000EB002100240820006A3DEC006B082100B7
:100AC000A00020006C082100A10020088600210859
:100AD000870001100130A3070030A43D2408803AAC
:100AE0002000E90080306902031D792D02302100C9
:100AF0002302031C7C2D7D2D4F2D3D009012901D57
:100B0000822D832D4F2E921D862D872D4F2E0F0C5B
:100B10002000E900E90C690C0F39003A031D912D02
:100B2000922DC02D3D000F19962D972DC02D200020
:100B3000200C890C0F39E90069082100A2000D3052
:100B40002206031DA42DA52DA92D8A31B922853198
:100B5000BC2D09302206031DAE2DAF2DB02DBC2DAE
:100B60002203031DB42DB52DB92D8C31E32485311D
:100B7000BC2D9731D42785318731F82785314D2E0B
:100B80003D000F0C2000E900E90C690C0F39003A18
:100B9000031DCB2DCC2DD52D3D000F1DD02DD12DDE
:100BA000D52D87315A2785314D2E3D000F0C200061
:100BB000E900E90C690C0F39003A0319E02DE12D29
:100BC0004D2E3D000F0C2000E900E90C690C0F3997
:100BD000EA0002306A020318EE2DEF2D4D2E3D0083
:100BE0000F1DF32DF42D212E05302000E90069089A
:100BF000F0003D000F0C2000EA00EA0C6A0C0F39EF
:100C00008831252085313F3E860001308700811CD8
:100C10000A2E0B2E162E3D000F0C2000E900E90CC9
:100C2000690C0F398931442185314D2E3D000F0C5F
:100C30002000E900E90C690C0F399731A3278531B1
:100C40004D2E05302000E9006908F0003D000F0C32
:100C50002000EA00EA0C6A0C0F3988312520853122
:100C60003F3E860001308700011C372E382E432E70
:100C70003D000F0C2000E900E90C690C0F398831A8
:100C8000802085314D2E3D000F0C2000E900E90C3D
:100C9000690C0F399731A42785313D009011101F41
:100CA000522E532E582E9731A52785313D00101313
:100CB0002000121D5C2E5D2E5E2E121108003D00DC
:100CC0000E172200C7012100C1010430BE0005300B
:100CD000BF003F08A500410888313A2086313F3ED9
:100CE00086000130870021003E0881000130BE00EF
:100CF0003E08C10702304102031C7F2E802E652E64
:100D00002030A5000030A6000030A700A800103059
:100D1000A9000030AA008E31452686312200450800
:100D20008A316522863121002C082000A300210091
:100D30002B082000A2000830A10080302100BE0056
:100D40003E082000A000220046088A316522863134
:100D500021002C082000A70021002B082000A6005D
:100D600008302100BE003E082000A500A40121009B
:100D7000C101C10A0530BE003E08A5004108883106
:100D80003A2086313B3E86000130870001088A31D7
:100D90006522863121004108BF000230BF35FF3E89
:100DA000031DCE2E3F35223E860087012B08C03F13
:100DB0002C08C13F0530BE003E08A500410888311F
:100DC0003A2086313D3E860001308700010821002F
:100DD000BF004108C0000230C035FF3E031DEC2EAD
:100DE0004035213E860087013F0881008830BE00E3
:100DF0004108BF000230BF35FF3E031DFB2E3F35CB
:100E0000203E860087013E0881000530BE003E0876
:100E1000A500410888313A2086313C3E86000130E9
:100E2000870001088A316522863121004108BF0010
:100E30000230BF35FF3E031D192F3F35263E860089
:100E400087012B08C03F2C08C13F0530BE003E087B
:100E5000A500410888313A2086313E3E86000130A7
:100E6000870001082100BF004108C0000230C035E2
:100E7000FF3E031D372F4035253E860087013F0882
:100E800081004108BE000230BE35FF3E031D442FE5
:100E90003E35243E8600870181010130BE003E08B8
:100EA000C10702304102031C562F572FBA2E3D00B6
:100EB0000E1308002100490803195F2F602F662FC9
:100EC00022004F083D0096002100C9014508460454
:100ED00003196B2F6C2FCC2F0030460208300319FA
:100EE0004502031C742F752F7B2F08302000B000A3
:100EF0000030B100822F46082000B10021004508D3
:100F00002000B0003008FA007A08B20022004B0836
:100F1000F1004A08F00020003208FA00FB017A08CC
:100F2000F2007B08F30022004608893170218731E6
:100F300020003208FA00FB017A082100C5027B0874
:100F4000C63B20003208FA00FB017A082200CA07DB
:100F50007B08CB3D210045084604031DB02FB12F6F
:100F6000C02F083020003206031DB72FB82FC02F26
:100F700022004D080319BD2FBE2FC02FCE01CE0A6F
:100F800020003208FA00FB017A08F6007B08F7001F
:100F900089319E218731F72F22004E080319D12F66
:100FA000D22FDE2F0030F600F70089319E218731E5
:100FB0002200CE019731DE278731F72F2100470825
:100FC000031DE32FE42FF72F20006D086E04031993
:100FD000EA2FEB2FDA2FF001F00A6F08FA007A08F7
:100FE000F1006E088A006D080A008731DA2F0800C8
:100FF00008302000A1008030F0007008A000080038
:10100000FF30F000FF30F1000800F5000530F4007B
:101010007408F00075088831252088313F3E86002D
:10102000013087000108023908008130F300903058
:10103000F4007008860087017308C03F7408C13F40
:101040000930F0000030F1000800F200F301721CDA
:101050002A282B282F287008F1007108F3070310A5
:10106000F00D0310F20C7208031D372838282728CA
:10107000730808002100A800A701281C4028412867
:1010800045282508A6002608A7070310A50D03106C
:10109000A80C2808031D4D284E283D2827080800C5
:1010A0005030F500720886008701750881007308CA
:1010B00086008701A730C03F1730C13F7408860003
:1010C000870181010330F0000030F10008002000AA
:1010D0004208EE004108ED004308FC007C08EF00E8
:1010E0003E08B1003D08B0004008B3003F08B20020
:1010F0004008B5003F08B4008C314E248831080008
:10110000F2007208F0000230F035FF3E031D842823
:101110007035213E8600870181018430F00072081D
:10112000F1000230F135FF3E031D92287135203E5B
:1011300086008701700881000800F900790803190A
:10114000A228A328BB2802307902031CA828A928BA
:10115000AA28BB280530F8007808F0007908883103
:10116000252088313F3E86000130870081147908B0
:101170008931442188310800F50075080319C12818
:10118000C228DA2802307502031CC728C828C928DB
:10119000DA280530F4007408F0007508883125203D
:1011A00088313F3E86000130870001147508883180
:1011B000802088310800F401F501701CE028E12846
:1011C000E5287208F4077308F53D0130F235F30D98
:1011D000890BE6280130F136F00C890BEB287008FA
:1011E0007104031DF428F528DD287508F100740842
:1011F000F00008002100A901AA01251C00290129ED
:1012000005292708A9072808AA3D0130A735A80DF8
:10121000890B06290130A636A50C890B0B29250858
:101220002604031D14291529FD282A08A6002908CB
:10123000A5000800013404340034023405340034BD
:10124000043429340034083428340034103452343F
:10125000003420345134003440345034003480346D
:101260004F3400340034003400340034003400348F
:1012700000340034E034E834083408340034D03426
:10128000D83400346F349034F7000530F40074081B
:10129000F00077088831252089313E3E86000130F4
:1012A00087000108F5007708F6000230F635FF3EAA
:1012B000031D56297635253E860087017508810075
:1012C0008430F4007708F5000230F535FF3E031D49
:1012D00065297535243E8600870174088100080061
:1012E000F9007108F6007008F5007908F400740838
:1012F000F800912975088400760885000008F4003C
:101300007408F7000130F5070030F63D7708F40067
:10131000780886008701740881000130F4007408A1
:10132000F8070130F2020030F33B720A031D9C29DA
:10133000730A031D9C299D297A29080000308831F1
:1013400005208931003A031DA629A729CE292200AC
:10135000C719AB29AD290130AE290030F800780853
:10136000F9002000A40179080319B729B829C12977
:101370007608F8007808A500C830F8007808A400BE
:10138000C9297608F8007808A5008830F8007808A0
:10139000A4000830F80078082200C7060800F3000F
:1013A0007308031DD429D529E12970088600870117
:1013B0000030C03F9830C13F0430F0000030F100F1
:1013C000102A7303031DE529E629F2297008860017
:1013D00087013F30C03F9030C13F3030F0000030D7
:1013E000F100102A02307306031DF729F829042A98
:1013F0007008860087019830C03F9030C13F24308C
:10140000F0000030F100102A03307306031D092A92
:101410000A2A0F2AFF30F000FF30F100102A0A2AB2
:101420000800F8007808FB00FF39031D0030FC00BD
:1014300020307C02003003197B02031C202A212A61
:10144000262A7C08F7007B08F600642A7C08200026
:10145000B0003008F9007B08B0003008FA007A08C4
:101460007F39B000B1017A088039B200B301790840
:10147000B400B501B435B50D32083407B6003308F1
:10148000353DB70036083704031D472A492A013085
:101490004A2A0030B800B9013808F0003908F100D4
:1014A0005030F2000030F3008831DB208A31200018
:1014B00030087007BA003108713DBB003A08E03EC1
:1014C000F6001F303B3DF70008002100BA003A0843
:1014D000BC00FF39031D0030BD0020303D0200304C
:1014E00003193C02031C752A762A7B2A3D08AC00AE
:1014F0003C08AB00B82A3D08AD002D08B9003C08F7
:10150000AD002D08BB003B087F39AD00AE013B08A4
:101510008039AF00B0013908B100B201B135B20D68
:101520002F083107B3003008323DB40033083404CB
:10153000031D9B2A9D2A01309E2A0030B500B6016A
:101540003508A5003608A6005030A7000030A800D6
:101550008831FA208A3121002D082507B7002E088E
:10156000263DB8003708E03EAB001F30383DAC00E8
:101570000800220045082000E6006608E800680828
:10158000860087010030811B01302100C7009731A0
:10159000C5278A312000A41FCE2ACF2AD42A08309A
:1015A000E6006608A500A4012100450846040319C9
:1015B000DA2ADB2AEF2A20006D086E040319E12ADB
:1015C000E22AEC2AF0016F08E6006608F1006E08D6
:1015D0008A006D080A008A319731DE278A3120009F
:1015E000680886008701010E890C0339003A031D43
:1015F000FA2AFB2A062B803131208A312000E600AE
:101600006608E700E71F052B062B152B68089731A6
:10161000B9278A312000E6006608E700E71F112B92
:10162000122B152B9731D4278A313D000E1208005A
:101630003D0011109110920197018E151116111590
:101640009011901190119011900192159216121410
:1016500012179830F0000E30F1000030F200F30065
:101660001030F4000030F5008D317B258B313D00CA
:10167000181698111815981418102000C201C20AE3
:101680004208983EC000C1010E30C13D4008C30071
:101690004108C40043088600440887000116430837
:1016A00086004408870081154308860044088700A7
:1016B000011543088600440887008114430886000A
:1016C0004408870001100130C0004008C207023002
:1016D0004202031C6C2B6D2B402B3D009601210018
:1016E000C901CA018F3110278B319731DE278B3129
:1016F0002100121508003C302100990427001B1618
:101700009B170B178B178B31E4238B312100C401FE
:1017100023008E010C1221000C128E110E152000D8
:101720000E0C890C0139210044060319982B992BC2
:101730008F2B031020008E1D03140318A02BA32B46
:1017400020008E15A52B20008E1103108E1D031472
:101750000318AB2BAE2B20000C16B02B20000C1264
:101760001F302200D7007130D6001E30890BB62BF7
:10177000D60BB62BD70BB62B0000031020008E1D06
:1017800003140318C42BC72B20008E15C92B20006F
:101790008E1103108E1D03140318CF2BD22B2000A3
:1017A0000C16D42B20000C121F302200D7007130F1
:1017B000D6001E30890BDA2BD60BDA2BD70BDA2B9F
:1017C00000008F2B80310B283D00111091109201E9
:1017D00097018E15111611159011901190119011FD
:1017E0009001921592161214121798302100A5003C
:1017F0000E30A6000030A700A8001030A90000306D
:10180000AA008E3145268B313D0018169811181507
:10181000981418102200D301D30A5308983E2100CF
:10182000C200C3010E30C33D42082200D400210093
:1018300043082200D5005408860055088700011689
:1018400054088600550887008115540886005508FD
:101850008700011554088600550887008114540834
:10186000860055088700011001302100C20042089F
:101870002200D30702305302031C3F2C402C0D2CB6
:101880003D0096012100C901CA0186315F268B31D6
:101890009731E9278B312100121508000030200014
:1018A0003302083003193202031C572C582C5D2CCC
:1018B0000830B6000030B700612C3308B70032089A
:1018C000B6003608FA007A08BC003C08FA00FB01B2
:1018D00035087B02031D6E2C34087A02031C712C20
:1018E000722C772C3508B9003408B8007E2C3C08DF
:1018F000FA00FB017A08B8007B08B9003808FA0042
:101900007A08BC0035083302031D882C34083202E3
:10191000031C8B2C8D2C01308E2C0030FA007A08A1
:101920002200CD0020003C080319972C982CA82CED
:101930003108F1003008F0003C08FA00FB017A0899
:10194000F2007B08F30022004608893170218C31B7
:1019500020003C08FA00FB017A0830072200CA0088
:101960007B082000313D2200CB00200033083502E7
:10197000031DBC2C32083402031CBF2CC02CC52C08
:101980003308BB003208BA00C92C3508BB00340844
:10199000BA003C08FA00FB017A083A022100C500AF
:1019A0007B0820003B3B2100C6002200C715200019
:1019B0003C08FA00FB017A08F6007B08F700893141
:1019C0009E218C31080020002108FA007A08B2001C
:1019D00021004703031DED2CEE2C042D20006D0883
:1019E0006E040319F42CF52C002DF001F00A6F0899
:1019F000FA007A08F1006E088A006D080A008C313E
:101A00009731DE278C317A2D48080319082D092DCE
:101A10007A2D20003208FA00FB01210046087B02E3
:101A2000031D142D45087A02031C172D182D202D97
:101A300046082000B100210045082000B000282DF4
:101A400020003208FA00FB017A08B0007B08B100E0
:101A50003008FA007A08B30022004508F000003090
:101A6000F10020003308FA00FB017A08F2007B083D
:101A7000F30021004808893170218C31200033089F
:101A8000FA007A082100C80720003308FA00FB0199
:101A90007A082100C5027B08C63B083020003202CC
:101AA000031C532D542D5B2D210045084604031DB6
:101AB0005A2D5B2D7A2D2000320833020318612D38
:101AC000622D772D9731D4278C3120006D086E045C
:101AD00003196B2D6C2D002DF0016F08FA007A08A8
:101AE000F1006E088A006D080A008D31002D9731D3
:101AF000CC278C3108007108FD007008FC007408C8
:101B00007504031D842D852D862D442E7C088600AA
:101B10007D0887007208810074087C07F60075084C
:101B20007D3DF7007608FF3EF800FF30773DF90075
:101B300078088600790887007208810000307502F5
:101B40000330031974020318A62DA72DA82D442EC7
:101B50007C08013EF60000307D3DF70076088600E7
:101B600077088700720881007C08023EF60000308A
:101B70007D3DF700760886007708870072088100AF
:101B800074087C07F60075087D3DF7007608FE3E78
:101B9000F800FF30773DF900780886007908870063
:101BA0007208810074087C07F60075087D3DF70017
:101BB0007608FD3EF800FF30773DF9007808860092
:101BC0007908870072088100003075020730031918
:101BD00074020318EC2DED2DEE2D442E7C08033EEF
:101BE000F60000307D3DF700760886007708870014
:101BF0007208810074087C07F60075087D3DF700C7
:101C00007608FC3EF800FF30773DF9007808860042
:101C100079088700720881000030750209300319C5
:101C200074020318142E152E162E442E7C09F6006D
:101C30007D09F700F60A0319F70A03307605FA0062
:101C400000307705FB007A08FC077B08FD3D7A0829
:101C5000F4027B08F53BFC30F405FF30F5053E2E21
:101C60007C0886007D088700720881000130F4023C
:101C70000030F53B0130FC070030FD3D7408750471
:101C8000031D432E442E302E080021002608B200EA
:101C90002508B10029082A04031D4F2E502E512E6D
:101CA0000F2F310886003208870027088100290895
:101CB0003107AB002A08323DAC002B08FF3EAD00D7
:101CC000FF302C3DAE002D0886002E088700270827
:101CD000810000302A020330031929020318712EF3
:101CE000722E732E0F2F3108013EAB000030323DB3
:101CF000AC002B0886002C088700270881003108DB
:101D0000023EAB000030323DAC002B0886002C08B0
:101D100087002708810029083107AB002A08323DD7
:101D2000AC002B08FE3EAD00FF302C3DAE002D0870
:101D300086002E0887002708810029083107AB009C
:101D40002A08323DAC002B08FD3EAD00FF302C3D93
:101D5000AE002D0886002E0887002708810000307D
:101D60002A020730031929020318B72EB82EB92EFC
:101D70000F2F3108033EAB000030323DAC002B0882
:101D800086002C0887002708810029083107AB004E
:101D90002A08323DAC002B08FC3EAD00FF302C3D44
:101DA000AE002D0886002E0887002708810000302D
:101DB0002A020930031929020318DF2EE02EE12E32
:101DC0000F2F3109AB003209AC00AB0A0319AC0A82
:101DD00003302B05AF0000302C05B0002F08B107F1
:101DE0003008B23D2F08A9023008AA3BFC30A905F3
:101DF000FF30AA05092F310886003208870027081E
:101E000081000130A9020030AA3B0130B107003047
:101E1000B23D29082A04031D0E2F0F2FFB2E0800A8
:101E20003D000E172200C7012000BF010430BC0096
:101E30000530BD003D08F0003F08883125208F3176
:101E40003F3E86000130870020003C0881000130C1
:101E5000BC003C08BF0702303F02031C302F312F6B
:101E6000162F2030F0000030F1000030F200F300B7
:101E70001030F4000030F5008D317B258F312200C9
:101E800045088A3111228F3177082000A300760897
:101E9000A2000830A1008030BC003C08A000220055
:101EA00046088A3111228F3177082000A700760872
:101EB000A6000830BC003C08A500A401BF01BF0A71
:101EC0000530BC003C08F0003F08883125208F31E8
:101ED0003B3E86000130870001088A3111228F3194
:101EE00020003F08BD000230BD35FF3E031D742FAA
:101EF0003D35223E860087017608C03F7708C13F06
:101F00000530BC003C08F0003F08883125208F31A7
:101F10003D3E86000130870001082000BD003F08DB
:101F2000BE000230BE35FF3E031D922F3E35213EDE
:101F3000860087013D0881008830BC003F08BD0055
:101F40000230BD35FF3E031DA12F3D35203E8600EA
:101F500087013C0881000530BC003C08F0003F08C8
:101F6000883125208F313C3E8600013087000108F2
:101F70008A3111228F3120003F08BD000230BD356B
:101F8000FF3E031DBF2F3D35263E860087017608A4
:101F9000C03F7708C13F0530BC003C08F0003F0857
:101FA000883125208F313E3E8600013087000108B0
:101FB0002000BD003F08BE000230BE35FF3E031DBD
:101FC000DD2F3E35253E860087013D0881003F0814
:101FD000BC000230BC35FF3E031DEA2F3C35243ED9
:101FE0008600870181010130BC003C08BF07023038
:101FF0003F02031CFC2FFD2F602F3D000E13080035
:102000000534013409340634A1340134053407346D
:102010001934E0342934E7341534003425340134DC
:1020200075340134953408348134023495340134E4
:1020300075340834813403349534053475340134EF
:102040000534083419340134293405349134023408
:1020500095340134753403349134033495340634A3
:1020600075340834153400342534653405340734A8
:10207000193400342934653481340034C0343034A8
:1020800003345334003469340034673400346E341C
:102090000034613400346C34003420340034313482
:1020A00000343134003420340034533400346F347D
:1020B00000346634003474340034773400346134CE
:1020C00000347234003465340034203400344C342D
:1020D00000344C340034433400342E34003409349A
:1020E000023429340034013401340234803432346F
:1020F000093404340034003402340334003400342E
:1021000002340934213401340134003401342234DE
:102110003F34003407340534813403340834003448
:1021200001340734053401340334083400340134F5
:1021300024340334553400345334003442340034EE
:10214000203400344B3400346534003479340034A6
:10215000623400346F34003461340034723400343B
:1021600064340034203400344434003465340034A2
:102170006D3400346F34003418340334493400347F
:102180006E340034743400346534003472340034F6
:102190006634003461340034633400346534003410
:1021A0002034003431340034123401340034023429
:1021B0000034003400340834A034A0340334003434
:0C21C000013400340134023400340134D6
:102F46000800080008000800080008000800003013
:102F5600080001300800FF300800FF300800FF308D
:102F6600080000300800F001F1010800FD007D08AE
:102F760083314F2397310800FE0012001E00FE0B1E
:102F8600C02F00340830F00070082000A500A4010E
:102F960008002000A401A501C830F0007008A400B4
:102FA60008000830F00070082000A5008430F0000A
:102FB6007008A40008002200CA01CB012100C80144
:102FC600C501C6012000ED01EE0108002200CA017C
:102FD600CB012100C801C501C6012000ED01EE01AB
:102FE60008007008860087010030C03F9030C13F5E
:102FF6003F30F0000030F100080004340334093497
:02300600043490
:020000040001F9
:04000E00E4CFCFD795
:00000001FF
